{
  "contractName": "TrueLocker",
  "abi": [
    {
      "inputs": [],
      "stateMutability": "nonpayable",
      "type": "constructor"
    },
    {
      "anonymous": false,
      "inputs": [
        {
          "indexed": true,
          "internalType": "address",
          "name": "previousOwner",
          "type": "address"
        },
        {
          "indexed": true,
          "internalType": "address",
          "name": "newOwner",
          "type": "address"
        }
      ],
      "name": "OwnershipTransferred",
      "type": "event"
    },
    {
      "anonymous": false,
      "inputs": [
        {
          "indexed": true,
          "internalType": "address",
          "name": "tokenAddress",
          "type": "address"
        },
        {
          "indexed": true,
          "internalType": "address",
          "name": "sender",
          "type": "address"
        },
        {
          "indexed": false,
          "internalType": "uint256",
          "name": "amount",
          "type": "uint256"
        },
        {
          "indexed": false,
          "internalType": "uint256",
          "name": "unlockTime",
          "type": "uint256"
        },
        {
          "indexed": false,
          "internalType": "uint256",
          "name": "depositId",
          "type": "uint256"
        }
      ],
      "name": "TokensLocked",
      "type": "event"
    },
    {
      "anonymous": false,
      "inputs": [
        {
          "indexed": true,
          "internalType": "address",
          "name": "tokenAddress",
          "type": "address"
        },
        {
          "indexed": true,
          "internalType": "address",
          "name": "receiver",
          "type": "address"
        },
        {
          "indexed": false,
          "internalType": "uint256",
          "name": "amount",
          "type": "uint256"
        }
      ],
      "name": "TokensWithdrawn",
      "type": "event"
    },
    {
      "inputs": [
        {
          "internalType": "uint256",
          "name": "",
          "type": "uint256"
        }
      ],
      "name": "allDepositIds",
      "outputs": [
        {
          "internalType": "uint256",
          "name": "",
          "type": "uint256"
        }
      ],
      "stateMutability": "view",
      "type": "function"
    },
    {
      "inputs": [],
      "name": "bnbFee",
      "outputs": [
        {
          "internalType": "uint256",
          "name": "",
          "type": "uint256"
        }
      ],
      "stateMutability": "view",
      "type": "function"
    },
    {
      "inputs": [],
      "name": "depositId",
      "outputs": [
        {
          "internalType": "uint256",
          "name": "",
          "type": "uint256"
        }
      ],
      "stateMutability": "view",
      "type": "function"
    },
    {
      "inputs": [
        {
          "internalType": "address",
          "name": "",
          "type": "address"
        },
        {
          "internalType": "uint256",
          "name": "",
          "type": "uint256"
        }
      ],
      "name": "depositsByTokenAddress",
      "outputs": [
        {
          "internalType": "uint256",
          "name": "",
          "type": "uint256"
        }
      ],
      "stateMutability": "view",
      "type": "function"
    },
    {
      "inputs": [
        {
          "internalType": "address",
          "name": "",
          "type": "address"
        },
        {
          "internalType": "uint256",
          "name": "",
          "type": "uint256"
        }
      ],
      "name": "depositsByWithdrawalAddress",
      "outputs": [
        {
          "internalType": "uint256",
          "name": "",
          "type": "uint256"
        }
      ],
      "stateMutability": "view",
      "type": "function"
    },
    {
      "inputs": [
        {
          "internalType": "uint256",
          "name": "",
          "type": "uint256"
        }
      ],
      "name": "lockedToken",
      "outputs": [
        {
          "internalType": "address",
          "name": "tokenAddress",
          "type": "address"
        },
        {
          "internalType": "address",
          "name": "withdrawalAddress",
          "type": "address"
        },
        {
          "internalType": "uint256",
          "name": "tokenAmount",
          "type": "uint256"
        },
        {
          "internalType": "uint256",
          "name": "unlockTime",
          "type": "uint256"
        },
        {
          "internalType": "bool",
          "name": "withdrawn",
          "type": "bool"
        }
      ],
      "stateMutability": "view",
      "type": "function"
    },
    {
      "inputs": [],
      "name": "lpFeePercent",
      "outputs": [
        {
          "internalType": "uint256",
          "name": "",
          "type": "uint256"
        }
      ],
      "stateMutability": "view",
      "type": "function"
    },
    {
      "inputs": [],
      "name": "owner",
      "outputs": [
        {
          "internalType": "address",
          "name": "",
          "type": "address"
        }
      ],
      "stateMutability": "view",
      "type": "function"
    },
    {
      "inputs": [],
      "name": "remainingBnbFees",
      "outputs": [
        {
          "internalType": "uint256",
          "name": "",
          "type": "uint256"
        }
      ],
      "stateMutability": "view",
      "type": "function"
    },
    {
      "inputs": [],
      "name": "renounceOwnership",
      "outputs": [],
      "stateMutability": "nonpayable",
      "type": "function"
    },
    {
      "inputs": [
        {
          "internalType": "address",
          "name": "",
          "type": "address"
        }
      ],
      "name": "tokensFees",
      "outputs": [
        {
          "internalType": "uint256",
          "name": "",
          "type": "uint256"
        }
      ],
      "stateMutability": "view",
      "type": "function"
    },
    {
      "inputs": [],
      "name": "totalBnbFees",
      "outputs": [
        {
          "internalType": "uint256",
          "name": "",
          "type": "uint256"
        }
      ],
      "stateMutability": "view",
      "type": "function"
    },
    {
      "inputs": [
        {
          "internalType": "address",
          "name": "newOwner",
          "type": "address"
        }
      ],
      "name": "transferOwnership",
      "outputs": [],
      "stateMutability": "nonpayable",
      "type": "function"
    },
    {
      "inputs": [
        {
          "internalType": "address",
          "name": "",
          "type": "address"
        },
        {
          "internalType": "address",
          "name": "",
          "type": "address"
        }
      ],
      "name": "walletTokenBalance",
      "outputs": [
        {
          "internalType": "uint256",
          "name": "",
          "type": "uint256"
        }
      ],
      "stateMutability": "view",
      "type": "function"
    },
    {
      "inputs": [
        {
          "internalType": "address",
          "name": "_tokenAddress",
          "type": "address"
        },
        {
          "internalType": "uint256",
          "name": "_amount",
          "type": "uint256"
        },
        {
          "internalType": "uint256",
          "name": "_unlockTime",
          "type": "uint256"
        },
        {
          "internalType": "bool",
          "name": "_feeInBnb",
          "type": "bool"
        }
      ],
      "name": "lockTokens",
      "outputs": [
        {
          "internalType": "uint256",
          "name": "_id",
          "type": "uint256"
        }
      ],
      "stateMutability": "payable",
      "type": "function"
    },
    {
      "inputs": [
        {
          "internalType": "uint256",
          "name": "_id",
          "type": "uint256"
        }
      ],
      "name": "withdrawTokens",
      "outputs": [],
      "stateMutability": "nonpayable",
      "type": "function"
    },
    {
      "inputs": [
        {
          "internalType": "address",
          "name": "_tokenAddress",
          "type": "address"
        }
      ],
      "name": "getTotalTokenBalance",
      "outputs": [
        {
          "internalType": "uint256",
          "name": "",
          "type": "uint256"
        }
      ],
      "stateMutability": "view",
      "type": "function"
    },
    {
      "inputs": [
        {
          "internalType": "address",
          "name": "_tokenAddress",
          "type": "address"
        },
        {
          "internalType": "address",
          "name": "_walletAddress",
          "type": "address"
        }
      ],
      "name": "getTokenBalanceByAddress",
      "outputs": [
        {
          "internalType": "uint256",
          "name": "",
          "type": "uint256"
        }
      ],
      "stateMutability": "view",
      "type": "function"
    },
    {
      "inputs": [],
      "name": "getAllDepositIds",
      "outputs": [
        {
          "internalType": "uint256[]",
          "name": "",
          "type": "uint256[]"
        }
      ],
      "stateMutability": "view",
      "type": "function"
    },
    {
      "inputs": [
        {
          "internalType": "uint256",
          "name": "_id",
          "type": "uint256"
        }
      ],
      "name": "getDepositDetails",
      "outputs": [
        {
          "internalType": "address",
          "name": "",
          "type": "address"
        },
        {
          "internalType": "address",
          "name": "",
          "type": "address"
        },
        {
          "internalType": "uint256",
          "name": "",
          "type": "uint256"
        },
        {
          "internalType": "uint256",
          "name": "",
          "type": "uint256"
        },
        {
          "internalType": "bool",
          "name": "",
          "type": "bool"
        }
      ],
      "stateMutability": "view",
      "type": "function"
    },
    {
      "inputs": [
        {
          "internalType": "address",
          "name": "_withdrawalAddress",
          "type": "address"
        }
      ],
      "name": "getDepositsByWithdrawalAddress",
      "outputs": [
        {
          "internalType": "uint256[]",
          "name": "",
          "type": "uint256[]"
        }
      ],
      "stateMutability": "view",
      "type": "function"
    },
    {
      "inputs": [
        {
          "internalType": "address",
          "name": "_tokenAddress",
          "type": "address"
        }
      ],
      "name": "getDepositsByTokenAddress",
      "outputs": [
        {
          "internalType": "uint256[]",
          "name": "",
          "type": "uint256[]"
        }
      ],
      "stateMutability": "view",
      "type": "function"
    },
    {
      "inputs": [
        {
          "internalType": "uint256",
          "name": "fee",
          "type": "uint256"
        }
      ],
      "name": "setBnbFee",
      "outputs": [],
      "stateMutability": "nonpayable",
      "type": "function"
    },
    {
      "inputs": [
        {
          "internalType": "uint256",
          "name": "percent",
          "type": "uint256"
        }
      ],
      "name": "setLpFee",
      "outputs": [],
      "stateMutability": "nonpayable",
      "type": "function"
    },
    {
      "inputs": [
        {
          "internalType": "address payable",
          "name": "withdrawalAddress",
          "type": "address"
        }
      ],
      "name": "withdrawFees",
      "outputs": [],
      "stateMutability": "nonpayable",
      "type": "function"
    }
  ],
  "bytecode": "0x6080604052670de0b6b3a76400006002556005600355600060045560006005553480156200002c57600080fd5b506200004d620000416200005a60201b60201c565b6200006260201b60201c565b6001808190555062000126565b600033905090565b60008060009054906101000a900473ffffffffffffffffffffffffffffffffffffffff169050816000806101000a81548173ffffffffffffffffffffffffffffffffffffffff021916908373ffffffffffffffffffffffffffffffffffffffff1602179055508173ffffffffffffffffffffffffffffffffffffffff168173ffffffffffffffffffffffffffffffffffffffff167f8be0079c531659141344cd1fd0a4f28419497f9722a3daafe3b4186f6b6457e060405160405180910390a35050565b61342e80620001366000396000f3fe6080604052600436106101665760003560e01c8063890db72f116100d1578063b9e7df1c1161008a578063d4dbe3ef11610064578063d4dbe3ef146105a4578063e6a478b3146105cf578063efc17415146105ff578063f2fde38b1461062a57610166565b8063b9e7df1c146104e9578063bb941cff14610526578063c9028aff1461056757610166565b8063890db72f146103c15780638a47446c146104025780638da5cb5b1461042b5780639852099c14610456578063adad19bd14610481578063ae3ff3dd146104be57610166565b80633fd97b9b116101235780633fd97b9b1461029f578063530680d8146102dc5780636ba0392414610319578063715018a61461034457806384dfbfe21461035b57806386f65a221461038457610166565b80630bd59ad31461016b5780630cff87f1146101a8578063164e68de146101e5578063213596b81461020e578063315a095d14610239578063347c80ba14610262575b600080fd5b34801561017757600080fd5b50610192600480360381019061018d91906125a5565b610653565b60405161019f919061269a565b60405180910390f35b3480156101b457600080fd5b506101cf60048036038101906101ca91906125a5565b6106ea565b6040516101dc91906126cb565b60405180910390f35b3480156101f157600080fd5b5061020c60048036038101906102079190612724565b610702565b005b34801561021a57600080fd5b50610223610a11565b60405161023091906126cb565b60405180910390f35b34801561024557600080fd5b50610260600480360381019061025b919061277d565b610a17565b005b34801561026e57600080fd5b50610289600480360381019061028491906127aa565b6113d0565b60405161029691906126cb565b60405180910390f35b3480156102ab57600080fd5b506102c660048036038101906102c191906127ea565b611457565b6040516102d391906126cb565b60405180910390f35b3480156102e857600080fd5b5061030360048036038101906102fe91906127ea565b611488565b60405161031091906126cb565b60405180910390f35b34801561032557600080fd5b5061032e6114b9565b60405161033b919061269a565b60405180910390f35b34801561035057600080fd5b50610359611511565b005b34801561036757600080fd5b50610382600480360381019061037d919061277d565b611599565b005b34801561039057600080fd5b506103ab60048036038101906103a691906125a5565b611662565b6040516103b8919061269a565b60405180910390f35b3480156103cd57600080fd5b506103e860048036038101906103e3919061277d565b6116f9565b6040516103f9959493929190612854565b60405180910390f35b34801561040e57600080fd5b506104296004803603810190610424919061277d565b6117d4565b005b34801561043757600080fd5b5061044061189d565b60405161044d91906128a7565b60405180910390f35b34801561046257600080fd5b5061046b6118c6565b60405161047891906126cb565b60405180910390f35b34801561048d57600080fd5b506104a860048036038101906104a391906125a5565b6118cc565b6040516104b591906126cb565b60405180910390f35b3480156104ca57600080fd5b506104d361194f565b6040516104e091906126cb565b60405180910390f35b3480156104f557600080fd5b50610510600480360381019061050b91906127aa565b611955565b60405161051d91906126cb565b60405180910390f35b34801561053257600080fd5b5061054d6004803603810190610548919061277d565b61197a565b60405161055e959493929190612854565b60405180910390f35b34801561057357600080fd5b5061058e6004803603810190610589919061277d565b6119fd565b60405161059b91906126cb565b60405180910390f35b3480156105b057600080fd5b506105b9611a21565b6040516105c691906126cb565b60405180910390f35b6105e960048036038101906105e491906128ee565b611a27565b6040516105f691906126cb565b60405180910390f35b34801561060b57600080fd5b5061061461222c565b60405161062191906126cb565b60405180910390f35b34801561063657600080fd5b50610651600480360381019061064c91906125a5565b612232565b005b6060600b60008373ffffffffffffffffffffffffffffffffffffffff1673ffffffffffffffffffffffffffffffffffffffff1681526020019081526020016000208054806020026020016040519081016040528092919081815260200182805480156106de57602002820191906000526020600020905b8154815260200190600101908083116106ca575b50505050509050919050565b60076020528060005260406000206000915090505481565b61070a61232a565b73ffffffffffffffffffffffffffffffffffffffff1661072861189d565b73ffffffffffffffffffffffffffffffffffffffff161461077e576040517f08c379a0000000000000000000000000000000000000000000000000000000008152600401610775906129b2565b60405180910390fd5b600060055411156107db578073ffffffffffffffffffffffffffffffffffffffff166108fc6005549081150290604051600060405180830381858888f193505050501580156107d1573d6000803e3d6000fd5b5060006005819055505b6000600190505b60068054905081116109ad5760006006826006805490506108039190612a01565b8154811061081457610813612a35565b5b9060005260206000200160009054906101000a900473ffffffffffffffffffffffffffffffffffffffff1690506000600760008373ffffffffffffffffffffffffffffffffffffffff1673ffffffffffffffffffffffffffffffffffffffff168152602001908152602001600020549050600081111561090e578173ffffffffffffffffffffffffffffffffffffffff1663a9059cbb85836040518363ffffffff1660e01b81526004016108c9929190612ac3565b6020604051808303816000875af11580156108e8573d6000803e3d6000fd5b505050506040513d601f19601f8201168201806040525081019061090c9190612b01565b505b600760008373ffffffffffffffffffffffffffffffffffffffff1673ffffffffffffffffffffffffffffffffffffffff16815260200190815260200160002060009055600680548061096357610962612b2e565b5b6001900381819060005260206000200160006101000a81549073ffffffffffffffffffffffffffffffffffffffff02191690559055505080806109a590612b5d565b9150506107e2565b50600067ffffffffffffffff8111156109c9576109c8612ba6565b5b6040519080825280602002602001820160405280156109f75781602001602082028036833780820191505090505b5060069080519060200190610a0d92919061244e565b5050565b60055481565b600a600082815260200190815260200160002060030154421015610a70576040517f08c379a0000000000000000000000000000000000000000000000000000000008152600401610a6790612c21565b60405180910390fd5b600a600082815260200190815260200160002060040160009054906101000a900460ff1615610ad4576040517f08c379a0000000000000000000000000000000000000000000000000000000008152600401610acb90612c8d565b60405180910390fd5b600a600082815260200190815260200160002060010160009054906101000a900473ffffffffffffffffffffffffffffffffffffffff1673ffffffffffffffffffffffffffffffffffffffff163373ffffffffffffffffffffffffffffffffffffffff1614610b78576040517f08c379a0000000000000000000000000000000000000000000000000000000008152600401610b6f90612d1f565b60405180910390fd5b6000600a600083815260200190815260200160002060000160009054906101000a900473ffffffffffffffffffffffffffffffffffffffff1690506000600a600084815260200190815260200160002060010160009054906101000a900473ffffffffffffffffffffffffffffffffffffffff1690506000600a60008581526020019081526020016000206002015490508273ffffffffffffffffffffffffffffffffffffffff1663a9059cbb83836040518363ffffffff1660e01b8152600401610c44929190612d3f565b6020604051808303816000875af1158015610c63573d6000803e3d6000fd5b505050506040513d601f19601f82011682018060405250810190610c879190612b01565b610cc6576040517f08c379a0000000000000000000000000000000000000000000000000000000008152600401610cbd90612db4565b60405180910390fd5b6001600a600086815260200190815260200160002060040160006101000a81548160ff0219169083151502179055506000600d60008573ffffffffffffffffffffffffffffffffffffffff1673ffffffffffffffffffffffffffffffffffffffff16815260200190815260200160002060003373ffffffffffffffffffffffffffffffffffffffff1673ffffffffffffffffffffffffffffffffffffffff168152602001908152602001600020549050610d89828261233290919063ffffffff16565b600d60008673ffffffffffffffffffffffffffffffffffffffff1673ffffffffffffffffffffffffffffffffffffffff16815260200190815260200160002060003373ffffffffffffffffffffffffffffffffffffffff1673ffffffffffffffffffffffffffffffffffffffff168152602001908152602001600020819055506000806000600b60008773ffffffffffffffffffffffffffffffffffffffff1673ffffffffffffffffffffffffffffffffffffffff1681526020019081526020016000208054905090506000600182610e629190612a01565b67ffffffffffffffff811115610e7b57610e7a612ba6565b5b604051908082528060200260200182016040528015610ea95781602001602082028036833780820191505090505b509050600092505b818310156110615788600b60008973ffffffffffffffffffffffffffffffffffffffff1673ffffffffffffffffffffffffffffffffffffffff1681526020019081526020016000208481548110610f0b57610f0a612a35565b5b90600052602060002001541415610fd3578293505b600182610f2d9190612a01565b841015610fce57600b60008873ffffffffffffffffffffffffffffffffffffffff1673ffffffffffffffffffffffffffffffffffffffff168152602001908152602001600020600185610f809190612dd4565b81548110610f9157610f90612a35565b5b9060005260206000200154818581518110610faf57610fae612a35565b5b6020026020010181815250508380610fc690612b5d565b945050610f20565b611061565b600b60008873ffffffffffffffffffffffffffffffffffffffff1673ffffffffffffffffffffffffffffffffffffffff168152602001908152602001600020838154811061102457611023612a35565b5b906000526020600020015481848151811061104257611041612a35565b5b602002602001018181525050828061105990612b5d565b935050610eb1565b80600b60008973ffffffffffffffffffffffffffffffffffffffff1673ffffffffffffffffffffffffffffffffffffffff16815260200190815260200160002090805190602001906110b49291906124d8565b506000600c60008a73ffffffffffffffffffffffffffffffffffffffff1673ffffffffffffffffffffffffffffffffffffffff168152602001908152602001600020805490509050600060018261110b9190612a01565b67ffffffffffffffff81111561112457611123612ba6565b5b6040519080825280602002602001820160405280156111525781602001602082028036833780820191505090505b509050600094505b8185101561130a578a600c60008c73ffffffffffffffffffffffffffffffffffffffff1673ffffffffffffffffffffffffffffffffffffffff16815260200190815260200160002086815481106111b4576111b3612a35565b5b9060005260206000200154141561127c578495505b6001826111d69190612a01565b86101561127757600c60008b73ffffffffffffffffffffffffffffffffffffffff1673ffffffffffffffffffffffffffffffffffffffff1681526020019081526020016000206001876112299190612dd4565b8154811061123a57611239612a35565b5b906000526020600020015481878151811061125857611257612a35565b5b602002602001018181525050858061126f90612b5d565b9650506111c9565b61130a565b600c60008b73ffffffffffffffffffffffffffffffffffffffff1673ffffffffffffffffffffffffffffffffffffffff16815260200190815260200160002085815481106112cd576112cc612a35565b5b90600052602060002001548186815181106112eb576112ea612a35565b5b602002602001018181525050848061130290612b5d565b95505061115a565b80600c60008c73ffffffffffffffffffffffffffffffffffffffff1673ffffffffffffffffffffffffffffffffffffffff168152602001908152602001600020908051906020019061135d9291906124d8565b508873ffffffffffffffffffffffffffffffffffffffff168a73ffffffffffffffffffffffffffffffffffffffff167f6337ed398c0e8467698c581374fdce4db14922df487b5a39483079f5f59b60a48a6040516113bb91906126cb565b60405180910390a35050505050505050505050565b6000600d60008473ffffffffffffffffffffffffffffffffffffffff1673ffffffffffffffffffffffffffffffffffffffff16815260200190815260200160002060008373ffffffffffffffffffffffffffffffffffffffff1673ffffffffffffffffffffffffffffffffffffffff16815260200190815260200160002054905092915050565b600c602052816000526040600020818154811061147357600080fd5b90600052602060002001600091509150505481565b600b60205281600052604060002081815481106114a457600080fd5b90600052602060002001600091509150505481565b6060600980548060200260200160405190810160405280929190818152602001828054801561150757602002820191906000526020600020905b8154815260200190600101908083116114f3575b5050505050905090565b61151961232a565b73ffffffffffffffffffffffffffffffffffffffff1661153761189d565b73ffffffffffffffffffffffffffffffffffffffff161461158d576040517f08c379a0000000000000000000000000000000000000000000000000000000008152600401611584906129b2565b60405180910390fd5b6115976000612348565b565b6115a161232a565b73ffffffffffffffffffffffffffffffffffffffff166115bf61189d565b73ffffffffffffffffffffffffffffffffffffffff1614611615576040517f08c379a000000000000000000000000000000000000000000000000000000000815260040161160c906129b2565b60405180910390fd5b60008111611658576040517f08c379a000000000000000000000000000000000000000000000000000000000815260040161164f90612e76565b60405180910390fd5b8060038190555050565b6060600c60008373ffffffffffffffffffffffffffffffffffffffff1673ffffffffffffffffffffffffffffffffffffffff1681526020019081526020016000208054806020026020016040519081016040528092919081815260200182805480156116ed57602002820191906000526020600020905b8154815260200190600101908083116116d9575b50505050509050919050565b6000806000806000600a600087815260200190815260200160002060000160009054906101000a900473ffffffffffffffffffffffffffffffffffffffff16600a600088815260200190815260200160002060010160009054906101000a900473ffffffffffffffffffffffffffffffffffffffff16600a600089815260200190815260200160002060020154600a60008a815260200190815260200160002060030154600a60008b815260200190815260200160002060040160009054906101000a900460ff169450945094509450945091939590929450565b6117dc61232a565b73ffffffffffffffffffffffffffffffffffffffff166117fa61189d565b73ffffffffffffffffffffffffffffffffffffffff1614611850576040517f08c379a0000000000000000000000000000000000000000000000000000000008152600401611847906129b2565b60405180910390fd5b60008111611893576040517f08c379a000000000000000000000000000000000000000000000000000000000815260040161188a90612ee2565b60405180910390fd5b8060028190555050565b60008060009054906101000a900473ffffffffffffffffffffffffffffffffffffffff16905090565b60085481565b60008173ffffffffffffffffffffffffffffffffffffffff166370a08231306040518263ffffffff1660e01b815260040161190791906128a7565b602060405180830381865afa158015611924573d6000803e3d6000fd5b505050506040513d601f19601f820116820180604052508101906119489190612f17565b9050919050565b60045481565b600d602052816000526040600020602052806000526040600020600091509150505481565b600a6020528060005260406000206000915090508060000160009054906101000a900473ffffffffffffffffffffffffffffffffffffffff16908060010160009054906101000a900473ffffffffffffffffffffffffffffffffffffffff16908060020154908060030154908060040160009054906101000a900460ff16905085565b60098181548110611a0d57600080fd5b906000526020600020016000915090505481565b60035481565b6000808411611a6b576040517f08c379a0000000000000000000000000000000000000000000000000000000008152600401611a6290612fb6565b60405180910390fd5b6402540be4008310611ab2576040517f08c379a0000000000000000000000000000000000000000000000000000000008152600401611aa990613048565b60405180910390fd5b428311611af4576040517f08c379a0000000000000000000000000000000000000000000000000000000008152600401611aeb906130b4565b60405180910390fd5b811580611b02575060025434115b611b41576040517f08c379a0000000000000000000000000000000000000000000000000000000008152600401611b3890613120565b60405180910390fd5b8473ffffffffffffffffffffffffffffffffffffffff1663095ea7b330866040518363ffffffff1660e01b8152600401611b7c929190612d3f565b6020604051808303816000875af1158015611b9b573d6000803e3d6000fd5b505050506040513d601f19601f82011682018060405250810190611bbf9190612b01565b611bfe576040517f08c379a0000000000000000000000000000000000000000000000000000000008152600401611bf59061318c565b60405180910390fd5b8473ffffffffffffffffffffffffffffffffffffffff166323b872dd3330876040518463ffffffff1660e01b8152600401611c3b939291906131ac565b6020604051808303816000875af1158015611c5a573d6000803e3d6000fd5b505050506040513d601f19601f82011682018060405250810190611c7e9190612b01565b611cbd576040517f08c379a0000000000000000000000000000000000000000000000000000000008152600401611cb490613255565b60405180910390fd5b60008490508215611d0357611cdd3460045461240c90919063ffffffff16565b600481905550611cf83460055461240c90919063ffffffff16565b600581905550611e88565b6000611d2e6103e8611d206003548561242290919063ffffffff16565b61243890919063ffffffff16565b9050611d43818361233290919063ffffffff16565b91506000600760008973ffffffffffffffffffffffffffffffffffffffff1673ffffffffffffffffffffffffffffffffffffffff168152602001908152602001600020541415611df1576006879080600181540180825580915050600190039060005260206000200160009091909190916101000a81548173ffffffffffffffffffffffffffffffffffffffff021916908373ffffffffffffffffffffffffffffffffffffffff1602179055505b611e4381600760008a73ffffffffffffffffffffffffffffffffffffffff1673ffffffffffffffffffffffffffffffffffffffff1681526020019081526020016000205461240c90919063ffffffff16565b600760008973ffffffffffffffffffffffffffffffffffffffff1673ffffffffffffffffffffffffffffffffffffffff16815260200190815260200160002081905550505b611f1785600d60008973ffffffffffffffffffffffffffffffffffffffff1673ffffffffffffffffffffffffffffffffffffffff16815260200190815260200160002060003373ffffffffffffffffffffffffffffffffffffffff1673ffffffffffffffffffffffffffffffffffffffff1681526020019081526020016000205461240c90919063ffffffff16565b600d60008873ffffffffffffffffffffffffffffffffffffffff1673ffffffffffffffffffffffffffffffffffffffff16815260200190815260200160002060003373ffffffffffffffffffffffffffffffffffffffff1673ffffffffffffffffffffffffffffffffffffffff168152602001908152602001600020819055506000339050600860008154611fab90612b5d565b919050819055925086600a600085815260200190815260200160002060000160006101000a81548173ffffffffffffffffffffffffffffffffffffffff021916908373ffffffffffffffffffffffffffffffffffffffff16021790555080600a600085815260200190815260200160002060010160006101000a81548173ffffffffffffffffffffffffffffffffffffffff021916908373ffffffffffffffffffffffffffffffffffffffff16021790555081600a60008581526020019081526020016000206002018190555084600a6000858152602001908152602001600020600301819055506000600a600085815260200190815260200160002060040160006101000a81548160ff0219169083151502179055506009839080600181540180825580915050600190039060005260206000200160009091909190915055600b60008273ffffffffffffffffffffffffffffffffffffffff1673ffffffffffffffffffffffffffffffffffffffff168152602001908152602001600020839080600181540180825580915050600190039060005260206000200160009091909190915055600c60008873ffffffffffffffffffffffffffffffffffffffff1673ffffffffffffffffffffffffffffffffffffffff1681526020019081526020016000208390806001815401808255809150506001900390600052602060002001600090919091909150553373ffffffffffffffffffffffffffffffffffffffff168773ffffffffffffffffffffffffffffffffffffffff167fa6782d3322abbfbe850e6d5c5c78e8e1df603ea07608bb9a62dd83f40d4feccc888860085460405161221a93929190613275565b60405180910390a35050949350505050565b60025481565b61223a61232a565b73ffffffffffffffffffffffffffffffffffffffff1661225861189d565b73ffffffffffffffffffffffffffffffffffffffff16146122ae576040517f08c379a00000000000000000000000000000000000000000000000000000000081526004016122a5906129b2565b60405180910390fd5b600073ffffffffffffffffffffffffffffffffffffffff168173ffffffffffffffffffffffffffffffffffffffff16141561231e576040517f08c379a00000000000000000000000000000000000000000000000000000000081526004016123159061331e565b60405180910390fd5b61232781612348565b50565b600033905090565b600081836123409190612a01565b905092915050565b60008060009054906101000a900473ffffffffffffffffffffffffffffffffffffffff169050816000806101000a81548173ffffffffffffffffffffffffffffffffffffffff021916908373ffffffffffffffffffffffffffffffffffffffff1602179055508173ffffffffffffffffffffffffffffffffffffffff168173ffffffffffffffffffffffffffffffffffffffff167f8be0079c531659141344cd1fd0a4f28419497f9722a3daafe3b4186f6b6457e060405160405180910390a35050565b6000818361241a9190612dd4565b905092915050565b60008183612430919061333e565b905092915050565b6000818361244691906133c7565b905092915050565b8280548282559060005260206000209081019282156124c7579160200282015b828111156124c65782518260006101000a81548173ffffffffffffffffffffffffffffffffffffffff021916908373ffffffffffffffffffffffffffffffffffffffff1602179055509160200191906001019061246e565b5b5090506124d49190612525565b5090565b828054828255906000526020600020908101928215612514579160200282015b828111156125135782518255916020019190600101906124f8565b5b5090506125219190612525565b5090565b5b8082111561253e576000816000905550600101612526565b5090565b600080fd5b600073ffffffffffffffffffffffffffffffffffffffff82169050919050565b600061257282612547565b9050919050565b61258281612567565b811461258d57600080fd5b50565b60008135905061259f81612579565b92915050565b6000602082840312156125bb576125ba612542565b5b60006125c984828501612590565b91505092915050565b600081519050919050565b600082825260208201905092915050565b6000819050602082019050919050565b6000819050919050565b612611816125fe565b82525050565b60006126238383612608565b60208301905092915050565b6000602082019050919050565b6000612647826125d2565b61265181856125dd565b935061265c836125ee565b8060005b8381101561268d5781516126748882612617565b975061267f8361262f565b925050600181019050612660565b5085935050505092915050565b600060208201905081810360008301526126b4818461263c565b905092915050565b6126c5816125fe565b82525050565b60006020820190506126e060008301846126bc565b92915050565b60006126f182612547565b9050919050565b612701816126e6565b811461270c57600080fd5b50565b60008135905061271e816126f8565b92915050565b60006020828403121561273a57612739612542565b5b60006127488482850161270f565b91505092915050565b61275a816125fe565b811461276557600080fd5b50565b60008135905061277781612751565b92915050565b60006020828403121561279357612792612542565b5b60006127a184828501612768565b91505092915050565b600080604083850312156127c1576127c0612542565b5b60006127cf85828601612590565b92505060206127e085828601612590565b9150509250929050565b6000806040838503121561280157612800612542565b5b600061280f85828601612590565b925050602061282085828601612768565b9150509250929050565b61283381612567565b82525050565b60008115159050919050565b61284e81612839565b82525050565b600060a082019050612869600083018861282a565b612876602083018761282a565b61288360408301866126bc565b61289060608301856126bc565b61289d6080830184612845565b9695505050505050565b60006020820190506128bc600083018461282a565b92915050565b6128cb81612839565b81146128d657600080fd5b50565b6000813590506128e8816128c2565b92915050565b6000806000806080858703121561290857612907612542565b5b600061291687828801612590565b945050602061292787828801612768565b935050604061293887828801612768565b9250506060612949878288016128d9565b91505092959194509250565b600082825260208201905092915050565b7f4f776e61626c653a2063616c6c6572206973206e6f7420746865206f776e6572600082015250565b600061299c602083612955565b91506129a782612966565b602082019050919050565b600060208201905081810360008301526129cb8161298f565b9050919050565b7f4e487b7100000000000000000000000000000000000000000000000000000000600052601160045260246000fd5b6000612a0c826125fe565b9150612a17836125fe565b925082821015612a2a57612a296129d2565b5b828203905092915050565b7f4e487b7100000000000000000000000000000000000000000000000000000000600052603260045260246000fd5b6000819050919050565b6000612a89612a84612a7f84612547565b612a64565b612547565b9050919050565b6000612a9b82612a6e565b9050919050565b6000612aad82612a90565b9050919050565b612abd81612aa2565b82525050565b6000604082019050612ad86000830185612ab4565b612ae560208301846126bc565b9392505050565b600081519050612afb816128c2565b92915050565b600060208284031215612b1757612b16612542565b5b6000612b2584828501612aec565b91505092915050565b7f4e487b7100000000000000000000000000000000000000000000000000000000600052603160045260246000fd5b6000612b68826125fe565b91507fffffffffffffffffffffffffffffffffffffffffffffffffffffffffffffffff821415612b9b57612b9a6129d2565b5b600182019050919050565b7f4e487b7100000000000000000000000000000000000000000000000000000000600052604160045260246000fd5b7f546f6b656e7320617265206c6f636b6564000000000000000000000000000000600082015250565b6000612c0b601183612955565b9150612c1682612bd5565b602082019050919050565b60006020820190508181036000830152612c3a81612bfe565b9050919050565b7f546f6b656e7320616c72656164792077697468647261776e0000000000000000600082015250565b6000612c77601883612955565b9150612c8282612c41565b602082019050919050565b60006020820190508181036000830152612ca681612c6a565b9050919050565b7f43616e2077697468647261772066726f6d20746865206164647265737320757360008201527f656420666f72206c6f636b696e67000000000000000000000000000000000000602082015250565b6000612d09602e83612955565b9150612d1482612cad565b604082019050919050565b60006020820190508181036000830152612d3881612cfc565b9050919050565b6000604082019050612d54600083018561282a565b612d6160208301846126bc565b9392505050565b7f4661696c656420746f207472616e7366657220746f6b656e7300000000000000600082015250565b6000612d9e601983612955565b9150612da982612d68565b602082019050919050565b60006020820190508181036000830152612dcd81612d91565b9050919050565b6000612ddf826125fe565b9150612dea836125fe565b9250827fffffffffffffffffffffffffffffffffffffffffffffffffffffffffffffffff03821115612e1f57612e1e6129d2565b5b828201905092915050565b7f50657263656e7420697320746f6f20736d616c6c000000000000000000000000600082015250565b6000612e60601483612955565b9150612e6b82612e2a565b602082019050919050565b60006020820190508181036000830152612e8f81612e53565b9050919050565b7f46656520697320746f6f20736d616c6c00000000000000000000000000000000600082015250565b6000612ecc601083612955565b9150612ed782612e96565b602082019050919050565b60006020820190508181036000830152612efb81612ebf565b9050919050565b600081519050612f1181612751565b92915050565b600060208284031215612f2d57612f2c612542565b5b6000612f3b84828501612f02565b91505092915050565b7f546f6b656e7320616d6f756e74206d757374206265206772656174657220746860008201527f616e203000000000000000000000000000000000000000000000000000000000602082015250565b6000612fa0602483612955565b9150612fab82612f44565b604082019050919050565b60006020820190508181036000830152612fcf81612f93565b9050919050565b7f556e69782074696d657374616d70206d75737420626520696e207365636f6e6460008201527f732c206e6f74206d696c6c697365636f6e647300000000000000000000000000602082015250565b6000613032603383612955565b915061303d82612fd6565b604082019050919050565b6000602082019050818103600083015261306181613025565b9050919050565b7f556e6c6f636b2074696d65206d75737420626520696e20667574757265000000600082015250565b600061309e601d83612955565b91506130a982613068565b602082019050919050565b600060208201905081810360008301526130cd81613091565b9050919050565b7f424e4220666565206e6f742070726f7669646564000000000000000000000000600082015250565b600061310a601483612955565b9150613115826130d4565b602082019050919050565b60006020820190508181036000830152613139816130fd565b9050919050565b7f4661696c656420746f20617070726f766520746f6b656e730000000000000000600082015250565b6000613176601883612955565b915061318182613140565b602082019050919050565b600060208201905081810360008301526131a581613169565b9050919050565b60006060820190506131c1600083018661282a565b6131ce602083018561282a565b6131db60408301846126bc565b949350505050565b7f4661696c656420746f207472616e7366657220746f6b656e7320746f206c6f6360008201527f6b65720000000000000000000000000000000000000000000000000000000000602082015250565b600061323f602383612955565b915061324a826131e3565b604082019050919050565b6000602082019050818103600083015261326e81613232565b9050919050565b600060608201905061328a60008301866126bc565b61329760208301856126bc565b6132a460408301846126bc565b949350505050565b7f4f776e61626c653a206e6577206f776e657220697320746865207a65726f206160008201527f6464726573730000000000000000000000000000000000000000000000000000602082015250565b6000613308602683612955565b9150613313826132ac565b604082019050919050565b60006020820190508181036000830152613337816132fb565b9050919050565b6000613349826125fe565b9150613354836125fe565b9250817fffffffffffffffffffffffffffffffffffffffffffffffffffffffffffffffff048311821515161561338d5761338c6129d2565b5b828202905092915050565b7f4e487b7100000000000000000000000000000000000000000000000000000000600052601260045260246000fd5b60006133d2826125fe565b91506133dd836125fe565b9250826133ed576133ec613398565b5b82820490509291505056fea2646970667358221220b66ebeece5da2f858a7b3e12255d710945bc18afb69bfd30c290c91375ecbec964736f6c634300080a0033",
  "immutableReferences": {},
  "source": "// SPDX-License-Identifier: UNLICENSED\n\npragma solidity >=0.7.0;\n\nimport \"@openzeppelin/contracts/access/Ownable.sol\";\nimport \"@openzeppelin/contracts/utils/math/SafeMath.sol\";\nimport \"@openzeppelin/contracts/security/ReentrancyGuard.sol\";\nimport \"./IBEP20.sol\";\n\ncontract TrueLocker is Ownable, ReentrancyGuard {\n    using SafeMath for uint256;\n\n    struct Items {\n        address tokenAddress;\n        address withdrawalAddress;\n        uint256 tokenAmount;\n        uint256 unlockTime;\n        bool withdrawn;\n    }\n\n    uint256 public bnbFee = 1 ether;\n    // base 1000, 0.5% = value * 5 / 1000\n    uint256 public lpFeePercent = 5;\n\n    // for statistic\n    uint256 public totalBnbFees = 0;\n    // withdrawable values\n    uint256 public remainingBnbFees = 0;\n    address[] tokenAddressesWithFees;\n    mapping(address => uint256) public tokensFees;\n\n    uint256 public depositId;\n    uint256[] public allDepositIds;\n\n    mapping(uint256 => Items) public lockedToken;\n\n    mapping(address => uint256[]) public depositsByWithdrawalAddress;\n    mapping(address => uint256[]) public depositsByTokenAddress;\n\n    // Token -> { sender1: locked amount, ... }\n    mapping(address => mapping(address => uint256)) public walletTokenBalance;\n\n    event TokensLocked(address indexed tokenAddress, address indexed sender, uint256 amount, uint256 unlockTime, uint256 depositId);\n    event TokensWithdrawn(address indexed tokenAddress, address indexed receiver, uint256 amount);\n\n    constructor() public {\n    }\n\n    function lockTokens(\n        address _tokenAddress,\n        uint256 _amount,\n        uint256 _unlockTime,\n        bool _feeInBnb\n    ) external payable returns (uint256 _id) {\n        require(_amount > 0, 'Tokens amount must be greater than 0');\n        require(_unlockTime < 10000000000, 'Unix timestamp must be in seconds, not milliseconds');\n        require(_unlockTime > block.timestamp, 'Unlock time must be in future');\n        require(!_feeInBnb || msg.value > bnbFee, 'BNB fee not provided');\n\n        require(IBEP20(_tokenAddress).approve(address(this), _amount), 'Failed to approve tokens');\n        require(IBEP20(_tokenAddress).transferFrom(msg.sender, address(this), _amount), 'Failed to transfer tokens to locker');\n\n        uint256 lockAmount = _amount;\n        if (_feeInBnb) {\n            totalBnbFees = totalBnbFees.add(msg.value);\n            remainingBnbFees = remainingBnbFees.add(msg.value);\n        } else {\n            uint256 fee = lockAmount.mul(lpFeePercent).div(1000);\n            lockAmount = lockAmount.sub(fee);\n\n            if (tokensFees[_tokenAddress] == 0) {\n                tokenAddressesWithFees.push(_tokenAddress);\n            }\n            tokensFees[_tokenAddress] = tokensFees[_tokenAddress].add(fee);\n        }\n\n        walletTokenBalance[_tokenAddress][msg.sender] = walletTokenBalance[_tokenAddress][msg.sender].add(_amount);\n\n        address _withdrawalAddress = msg.sender;\n        _id = ++depositId;\n        lockedToken[_id].tokenAddress = _tokenAddress;\n        lockedToken[_id].withdrawalAddress = _withdrawalAddress;\n        lockedToken[_id].tokenAmount = lockAmount;\n        lockedToken[_id].unlockTime = _unlockTime;\n        lockedToken[_id].withdrawn = false;\n\n        allDepositIds.push(_id);\n        depositsByWithdrawalAddress[_withdrawalAddress].push(_id);\n        depositsByTokenAddress[_tokenAddress].push(_id);\n\n        emit TokensLocked(_tokenAddress, msg.sender, _amount, _unlockTime, depositId);\n    }\n\n    function withdrawTokens(uint256 _id) external {\n        require(block.timestamp >= lockedToken[_id].unlockTime, 'Tokens are locked');\n        require(!lockedToken[_id].withdrawn, 'Tokens already withdrawn');\n        require(msg.sender == lockedToken[_id].withdrawalAddress, 'Can withdraw from the address used for locking');\n\n        address tokenAddress = lockedToken[_id].tokenAddress;\n        address withdrawalAddress = lockedToken[_id].withdrawalAddress;\n        uint256 amount = lockedToken[_id].tokenAmount;\n\n        require(IBEP20(tokenAddress).transfer(withdrawalAddress, amount), 'Failed to transfer tokens');\n\n        lockedToken[_id].withdrawn = true;\n        uint256 previousBalance = walletTokenBalance[tokenAddress][msg.sender];\n        walletTokenBalance[tokenAddress][msg.sender] = previousBalance.sub(amount);\n\n        // Remove depositId from withdrawal addresses mapping\n        uint256 i;\n        uint256 j;\n        uint256 byWLength = depositsByWithdrawalAddress[withdrawalAddress].length;\n        uint256[] memory newDepositsByWithdrawal = new uint256[](byWLength - 1);\n\n        for (j = 0; j < byWLength; j++) {\n            if (depositsByWithdrawalAddress[withdrawalAddress][j] == _id) {\n                for (i = j; i < byWLength - 1; i++) {\n                    newDepositsByWithdrawal[i] = depositsByWithdrawalAddress[withdrawalAddress][i + 1];\n                }\n                break;\n            } else {\n                newDepositsByWithdrawal[j] = depositsByWithdrawalAddress[withdrawalAddress][j];\n            }\n        }\n        depositsByWithdrawalAddress[withdrawalAddress] = newDepositsByWithdrawal;\n\n        // Remove depositId from tokens mapping\n        uint256 byTLength = depositsByTokenAddress[tokenAddress].length;\n        uint256[] memory newDepositsByToken = new uint256[](byTLength - 1);\n        for (j = 0; j < byTLength; j++) {\n            if (depositsByTokenAddress[tokenAddress][j] == _id) {\n                for (i = j; i < byTLength - 1; i++) {\n                    newDepositsByToken[i] = depositsByTokenAddress[tokenAddress][i + 1];\n                }\n                break;\n            } else {\n                newDepositsByToken[j] = depositsByTokenAddress[tokenAddress][j];\n            }\n        }\n        depositsByTokenAddress[tokenAddress] = newDepositsByToken;\n\n        emit TokensWithdrawn(tokenAddress, withdrawalAddress, amount);\n    }\n\n    function getTotalTokenBalance(address _tokenAddress) view public returns (uint256)\n    {\n        return IBEP20(_tokenAddress).balanceOf(address(this));\n    }\n\n    function getTokenBalanceByAddress(address _tokenAddress, address _walletAddress) view public returns (uint256)\n    {\n        return walletTokenBalance[_tokenAddress][_walletAddress];\n    }\n\n    function getAllDepositIds() view public returns (uint256[] memory)\n    {\n        return allDepositIds;\n    }\n\n    function getDepositDetails(uint256 _id) view public returns (address, address, uint256, uint256, bool)\n    {\n        return (lockedToken[_id].tokenAddress, lockedToken[_id].withdrawalAddress, lockedToken[_id].tokenAmount,\n        lockedToken[_id].unlockTime, lockedToken[_id].withdrawn);\n    }\n\n    function getDepositsByWithdrawalAddress(address _withdrawalAddress) view public returns (uint256[] memory)\n    {\n        return depositsByWithdrawalAddress[_withdrawalAddress];\n    }\n\n    function getDepositsByTokenAddress(address _tokenAddress) view public returns (uint256[] memory)\n    {\n        return depositsByTokenAddress[_tokenAddress];\n    }\n\n    function setBnbFee(uint256 fee) external onlyOwner {\n        require(fee > 0, 'Fee is too small');\n        bnbFee = fee;\n    }\n\n    function setLpFee(uint256 percent) external onlyOwner {\n        require(percent > 0, 'Percent is too small');\n        lpFeePercent = percent;\n    }\n\n    function withdrawFees(address payable withdrawalAddress) external onlyOwner {\n        if (remainingBnbFees > 0) {\n            withdrawalAddress.transfer(remainingBnbFees);\n            remainingBnbFees = 0;\n        }\n\n        for (uint i = 1; i <= tokenAddressesWithFees.length; i++) {\n            address tokenAddress = tokenAddressesWithFees[tokenAddressesWithFees.length - i];\n            uint256 amount = tokensFees[tokenAddress];\n            if (amount > 0) {\n                IBEP20(tokenAddress).transfer(withdrawalAddress, amount);\n            }\n            delete tokensFees[tokenAddress];\n            tokenAddressesWithFees.pop();\n        }\n\n        tokenAddressesWithFees = new address[](0);\n    }\n}",
  "sourcePath": "D:\\Project SPEC\\timelock-contract-master\\contracts\\TrueLocker.sol",
  "compiler": {
    "name": "solc",
    "version": "0.8.10+commit.fc410830.Emscripten.clang"
  },
  "schemaVersion": "3.4.3",
  "updatedAt": "2021-11-22T15:30:05.180Z",
  "devdoc": {
    "kind": "dev",
    "methods": {
      "owner()": {
        "details": "Returns the address of the current owner."
      },
      "renounceOwnership()": {
        "details": "Leaves the contract without owner. It will not be possible to call `onlyOwner` functions anymore. Can only be called by the current owner. NOTE: Renouncing ownership will leave the contract without an owner, thereby removing any functionality that is only available to the owner."
      },
      "transferOwnership(address)": {
        "details": "Transfers ownership of the contract to a new account (`newOwner`). Can only be called by the current owner."
      }
    },
    "version": 1
  },
  "userdoc": {
    "kind": "user",
    "methods": {},
    "version": 1
  }
}